S0100000426C696E6B7952412E7372656318
S31500000000A004002075060000DD0400007106000053
S3150000001071060000710600007106000071060000FE
S315000000200000000000000000000000007106000053
S315000000307106000000000000710600007106000055
S315000000400348044B834202D0034B03B11847704761
S31500000050080000200800002000000000064B0749A9
S31500000060C91A891048BF0131491003D0044B0BB19E
S3150000007001481847704700BF08000020080000200C
S315000000800000000010B5064C237843B9FFF7D8FFEF
S31500000090044B13B10448AFF300800123237010BD55
S315000000A02800002000000000680B000008B5054B82
S315000000B01BB105490548AFF30080BDE80840FFF7CE
S315000000C0CDBF00BF000000002C000020680B000020
S315000000D02DE9F04F334B83B01A88009202B9FEE740
S315000000E04FF001095B68304FDA88023B0193130A2F
S315000000F01B0153FA82F257F822302C4D23F00113DC
S3150000010023F4404343F00403DFF8A48047F8223089
S31500000110EFF3108289F310882B6823B9402188F801
S31500000120033088F803102B6801332B6082F31088A4
S315000001300026DDF804A0DFF87CB03AF8024F4FF451
S315000001407A71200A000150FA84F457F824304FF4EB
S31500000150FA7003EA0B0C4CF0050347F8243000F064
S3150000016091F957F82410013601EA0B0141F0040118
S3150000017047F82410009B9E4201D2032EDDD1EFF3F7
S31500000180108289F310882B6813B12B68013B2B6012
S315000001902B6823B9802188F8033088F8031082F38E
S315000001A01088B5E7540B0000000808408C000020BA
S315000001B0000D0840FE3FFEFF022800D070470249AE
S315000001C0024800F0AFB800BFF80700004400002066
S315000001D008B5FFF77DFF002008BD00BF2DE9F84FE9
S315000001E00388DBB180464FF000094FF0010BDFF8C2
S315000001F084A000241E4D4FEAC907D8F8043035F80C
S31500000200022BD919898891420AD00134032CF4D1E2
S31500000210B8F8003009F101094B45EAD8BDE8F88F76
S31500000220DB590BFA04F603F0B853B3F1807FF6B24C
S315000002309AF8BB340ED03342E7D0012000F0EEF935
S315000002409AF8BB34012023EA06038AF8BB3400F08F
S31500000250B5F9DAE73342D8D1012000F0DFF99AF890
S31500000260BB34012033438AF8BB3400F0A7F9CCE74E
S31500000270840A000000E00140F8B50646FFF7AEFF2D
S31500000280EFF31082012383F31088234F3B681BB9D9
S315000002902249CB704023CB703B6801333B6082F32D
S315000002A01088338823B300211D4D08E01B01134439
S315000002B045F82340328801318BB29A4218D97368C7
S315000002C053F8314003EBC1029288E0034FEA122350
S315000002D0D2B2EBD502EB031055F820E024F4803CB3
S315000002E02EF4803E45F820E01B0145F820C0DEE7ED
S315000002F0EFF31082012383F310883B6813B13B6848
S31500000300013B3B603B681BB980200449CB70C87039
S3150000031082F31088F8BD00BF8C000020000D084055
S315000003200008084008B5034B03600846FFF7A4FF22
S31500000330002008BD54524F50064B074993F826003B
S315000003401A6A51F82030C2F302620449D3400B60A6
S31500000350704700BF00E00140080000209800002020
S315000003604AF2035001233049304A2DE9F047A1F8FB
S31500000370FE03A2F80431B2F804319BB2002BFAD185
S3150000038001244FF400452A482A49C0E90333856011
S31500000390A2F80041284A8C600C600260274A01F5E9
S315000003A0B83191F8265042600A6A81F8804481F893
S315000003B03630234B436191F83C30DA07FBD542F2E5
S315000003C011740023184A0C8581F82A3092F83C30C3
S315000003D09B06FBD505214FF0030A0124F126F025E3
S315000003E04FF0810E4FF4254CDFF84090DFF85C802B
S315000003F089F81CA1C2F8208082F8261092F82610EF
S31500000400104B50F82110106A0F4FC0F30260C14024
S3150000041039601E731C721D7382F83E4082F83EE0FE
S31500000420A2F8FEC3BDE8F08700E0014000C001402D
S315000004300800002000700040002D310100127A00F3
S3150000044000C2EB0B00200040980000202112012082
S3150000045010B50024064B012083F8284000F0DEF892
S31500000460044B012083F8BB44BDE8104000F0A6B859
S315000004700030084000E00140A0F101000028FBD157
S31500000480704700BF4FF47A7310B400FB01F1114CB2
S31500000490114A2468B2FBF4F2A1FB03043CB9B0FB99
S315000004A0F2F0800860B15DF8044BFFF7E5BF9200FB
S315000004B0B1FBF2F1A1FB03132BB908460028F2D1D8
S315000004C05DF8044B70474FF0FF3C5DF8044B604607
S315000004D0FFF7D2BF9800002000CA9A3B70B50024EF
S315000004E00B4B0C4EB3F82021B3F84051ADB215407A
S315000004F025FA04F3DB0704D556F82430E0B203B13D
S3150000050098470134102CF3D1014BA3F8305170BD3C
S31500000510006000404C00002030B5032085B000F09C
S315000005207DF86FF0FF054FF0FF31204C0023224687
S315000005304FF0010E1E488564CDE90111039104F1C7
S31500000540C00532F8020F590960B104A800EB810119
S3150000055051F80C0C03F01F0C0EFA0CFC20EA0C00F0
S3150000056041F80C0C954203F10103EAD10199114BB4
S315000005700F4A03201167C3F8801202995167C3F826
S31500000580841203999167C3F8881200F017F80023C4
S31500000590094834F8022F03F1C00101330AB140F8CB
S315000005A02120A542F5D105B030BD00BF8A0A000062
S315000005B00080004000E100E000600040EFF31081A1
S315000005C0012383F31088124B33F8102092B22AB11C
S315000005D033F81020013A92B223F8102033F8103085
S315000005E09BB293B910B40B4A0B4CB2F8FE3334F8F5
S315000005F010009BB243F4254323EA0003A2F8FE331E
S3150000060081F310885DF8044B704781F310887047BA
S315000006109000002000E001404C0B000030B4EFF3E6
S315000006201081012383F310880E4A32F810309BB2F2
S315000006306BB90D4C0D4DB4F8FE3335F810C09BB2B6
S3150000064043EA0C0343F425439BB2A4F8FE3332F885
S31500000650103001339BB222F8103081F3108830BC81
S31500000660704700BF9000002000E001404C0B0000E6
S3150000067000BE704708B500F003F8FFF7A9FDFEE7D6
S315000006804FF4700270B52B4B2B4CC3F8882000201A
S315000006909C60FFF791FDFFF763FE0120FFF78CFDDD
S315000006A02368A3F5806383F30A882448244A00213B
S315000006B0121A00F064F82348234A2449121A00F05B
S315000006C051F8234D234B5B1B002B07DD00249E10A6
S315000006D055F8043B01349847A642F9DCFFF72CFE97
S315000006E0FFF7B6FE0320FFF799FF00234FF6FF70D2
S315000006F0194903F1080201330C2B21F81200F8D135
S3150000070000240320FFF75AFF0320FFF787FF134B50
S3150000071003205C609C60DC601C61FFF74FFF0220D9
S31500000720FFF74AFDFFF7F8FE2046BDE8704000F0EF
S3150000073017B800BF00ED00E0000000002800002010
S315000007409C00002000000020080000206C0B000028
S315000007500000002004000020000D084000000E40AC
S31500000760704700BF0A44431E914200D1704710B53E
S3150000077011F8014B914203F8014FF9D110BD024423
S315000007800346934200D1704703F8011BF9E7FFFFC8
S315000007904275696C7420776974682052656E65735A
S315000007A0617320416476616E63656420466C65788A
S315000007B069626C6520536F6674776172652050615B
S315000007C0636B6167652076657273696F6E20352E7F
S315000007D0342E3000352E342E300000000000040583
S315000007E0F8B500BFF8BC08BC9E467047F8B500BF18
S315000007F0F8BC08BC9E467047500000000408000084
S3150000080000000000008000000000000000800000E2
S3150000081001000000008000000200000000800000CF
S31500000820030000001040000004000000104000001B
S315000008300500000010400000060000001040000007
S3150000084008000000008000000E000000008000008C
S315000008500F0000000000000004010000000000007E
S3150000086005010000000C0100080100000000000066
S315000008700B010000000C01120C010000000C01121B
S315000008800D010000000C01120E0100000000000026
S315000008900F01000000000105020200000000010532
S315000008A0030200000000010504020000000001052B
S315000008B00502000000000000060200000000000023
S315000008C0070200000000000008020000450C0000BE
S315000008D00A020000000C01170B020000000C0117B1
S315000008E00E020000000C010000030000450C000091
S315000008F003030000450C000006030000450C000041
S3150000090007030000450C00000B030000400C010724
S3150000091000040000400C0107010400001040000024
S315000009200204000010400000030400001040000014
S3150000093004040000000C011705040000000C011758
S3150000094006040000000C011307040000450C00001B
S3150000095009040000000C01060A040000000C010650
S315000009600B040000000C01060C040000000C01063C
S315000009700D040000000000000E040000000000004E
S315000009800F040000000C010500050000000C010525
S3150000099001050000000C0105020500000000000032
S315000009A0030500000000000005050000000000002F
S315000009B006050000000C010508050000400C0107B3
S315000009C00B050000400C01070C050000040C00009C
S315000009D001060000040C000002060000040C0000E2
S315000009E003060000040C00000506000000000000DD
S315000009F008060000040C000009060000040C0000B4
S31500000A000A060000000000000B060000400C01056D
S31500000A100D060000400C01050E060000000C011337
S31500000A200F060000000C011700070000000C01175C
S31500000A3001070000000C011702070000000C011757
S31500000A4003070000000C011704070000000C011743
S31500000A5005070000000C010506070000000C010553
S31500000A600707000000000000080700000040000023
S31500000A70030800000040000004080000000C0113F9
S31500000A80080A0000020403040404FFFF000000003B
S31500000A900000000000000000000000000000000050
S31500000AA00000000000000000000000000000000040
S31500000AB00000000000000000000000000000000030
S31500000AC00000000000000000000000000000000020
S31500000AD00000000000000000000000000000000010
S31500000AE00000000000000000000000000000000000
S31500000AF000000000000000000000000000000000F0
S31500000B0000000000000000000000000000000000DF
S31500000B1000000000000000000000000000000000CF
S31500000B2000000000000000000000000000000000BF
S31500000B3000000000000000000000000000000000AF
S31500000B40000000000000000000000000010002009C
S31500000B5008001000060000005C0B00000A060906EB
S31100000B6001060206030605060000000060
S30D00000B6CAD0000008500000049
S3150100A100FFFFFFFFFFFFFFFFFFFFFFFFFFFFFFFF58
S3090100A110FFFFFFFF48
S3090100A134FFFFFFFF24
S3150100A200FFFDFFFFFFFFFFFFFFFFFFFFFFFFFFFF59
S3150100A210FFFFFFFFFFFFFFFFFFFFFFFFFFFFFFFF47
S3150100A220FFFFFFFFFFFFFFFFFFFFFFFFFFFFFFFF37
S3150100A230FFFFFFFFFFFFFFFFFFFFFFFFFFFFFFFF27
S3150100A240FFFFFFFFFFFFFFFFFFFFFFFFFFFFFFFF17
S3150100A250FFFFFFFFFFFFFFFFFFFFFFFFFFFFFFFF07
S3150100A260FFFFFFFFFFFFFFFFFFFFFFFFFFFFFFFFF7
S3150100A270FFFFFFFFFFFFFFFFFFFFFFFFFFFFFFFFE7
S3150100A280F8F8FFFFFFFFFFFFFFFFFFFFFFFFFFFFE5
S3150100A290FFFFFFFFFFFFFFFFFFFFFFFFFFFFFFFFC7
S3150100A2A0FFFFFFFFFFFFFFFFFFFFFFFFFFFFFFFFB7
S3150100A2B0FFFFFFFFFFFFFFFFFFFFFFFFFFFFFFFFA7
S3150100A2C0FFFFFFFFFFFFFFFFFFFFFFFFFFFFFFFF97
S705000006757F
