S01500004853333030585F53656E736F722E73726563B0
S3150000000088080020A11D0000C91B00009D1D0000DE
S315000000109D1D00009D1D00009D1D00009D1D0000F2
S315000000200000000000000000000000009D1D000010
S315000000309D1D0000000000009D1D00009D1D00008C
S3150000004055150000E916000009180000E91800001F
S31500000050590D0000CD0C0000E90D0000310E000026
S31500000060000000000000000000000000000000008A
S31500000070000000000000000000000000000000007A
S31500000080000000000000000000000000000000006A
S31500000090000000000000000000000000000000005A
S315000000A0000000000000000000000000000000004A
S315000000B0000000000000000000000000000000003A
S315000000C0000000000000000000000000000000002A
S315000000D0000000000000000000000000000000001A
S315000000E0000000000000000000000000000000000A
S315000000F000000000000000000000000000000000FA
S3150000010000000000000000000000000000000000E9
S3150000011000000000000000000000000000000000D9
S3150000012000000000000000000000000000000000C9
S3150000013000000000000000000000000000000000B9
S3150000014000000000000000000000000000000000A9
S315000001500000000000000000000000000000000099
S315000001600000000000000000000000000000000089
S315000001700000000000000000000000000000000079
S315000001800000000000000000000000000000000069
S315000001900000000000000000000000000000000059
S315000001A00000000000000000000000000000000049
S315000001B00000000000000000000000000000000039
S315000001C00348044B834202D0034B03B118477047E0
S315000001D0700000207000002000000000064B074958
S315000001E0C91A891048BF0131491003D0044B0BB11D
S315000001F001481847704700BF7000002070000020BB
S315000002000000000010B5064C237843B9FFF7D8FF6D
S31500000210044B13B10448AFF300800123237010BDD3
S315000002209000002000000000342F000008B5054BA8
S315000002301BB105490548AFF30080BDE80840FFF74C
S31500000240CDBF00BF0000000094000020342F000046
S31500000250022800D070470249024800F0D9BE00BF0C
S31500000260582A0000B00000200379013B012B02D878
S315000002700122014B1A707047AD000020037913B9B3
S315000002800122014B1A707047AC00002000222DE9B4
S31500000290F04F404BC1B01B683F4CADF80030804674
S315000002A01B0C68468DF80230227001F00CFE694680
S315000002B002463A4800F0F0FA237833B9012108469D
S315000002C001F056FC2378002BF8D0B8F1000F5EDD64
S315000002D04FF000094FF0200B4E46304F08F1FF3823
S315000002E008F10103012BC8BF002516DD6846ADF8ED
S315000002F000B0267001F0E7FD69460246384600F078
S31500000300CBFA237833B90121084601F031FC237872
S31500000310002BF8D001354545E8D100254FF02A0AD3
S315000003206846ADF800A0267001F0CDFD694602468C
S31500000330384600F0B1FA237833B90121084601F0B6
S3150000034017FC2378002BF8D00135A945E8DA114BC4
S3150000035068461B6826701A0CADF800308DF802202E
S3150000036001F0B1FD69460246384600F095FA237859
S3150000037033B90121084601F0FBFB2378002BF8D0A6
S3150000038008F1FF38B8F1FF3F09F10209A8D141B0E1
S31500000390BDE8F08F34290000AD00002038010020B0
S315000003A0794B1A8802B9FEE72DE9F047E8B0C82272
S315000003B0764C002104A8D3F804A001F06FFD74491F
S315000003C0744800F0B3FA23685B685B689B689A68B8
S315000003D0D3E900011268904721466F4800F0F6F80D
S315000003E0EFF31080012383F310886C4B1968002902
S315000003F000F0C5801A6801321A6080F310884FF049
S3150000040000084746664C674DDFF8B091624E3046AD
S31500000410277000F0F3F82378002BFCD0304601A9B2
S31500000420277000F0F7F82378002BFCD0304602AA9C
S3150000043001A900F0F9F830B1B0F5403F00F097801F
S31500000440B8F1000FEAD0BDF90A30BDF908205649C7
S3150000045004A801F041FD04A82F7001F034FD04A9A1
S3150000046002464C4800F018FA2B7833B901210846A9
S3150000047001F07EFB2B78002BF8D0BDF90E30BDF9CC
S315000004800C204A4904A801F027FD04A82F7001F0AA
S315000004901AFD04A902463F4800F0FEF92B7833B94D
S315000004A00121084601F064FB2B78002BF8D0BDF93A
S315000004B00830BAF800103A2B5CDD01223C4800F007
S315000004C0F3FCC822002136A801F0E8FC99E80F00E9
S315000004D00DF1100CACE8070004A8ACF800302F7042
S315000004E001F0F1FC04A902462A4800F0D5F92B7860
S315000004F033B90121084601F03BFB2B78002BF8D0DD
S31500000500C722244836A92F7000F0C0F92B7833B9DA
S315000005100121084601F02CFB2B78002BF8D036A8D9
S315000005208DF8DA7001F0FAFC8046FFF7AFFE42461E
S31500000530204904A801F0D0FC04A82F7001F0C3FCE8
S3150000054004A90246134800F0A7F92B7833B9012114
S31500000550084601F00DFB2B78002BF8D04FF47A718A
S315000005604FF4FA6001F004FB4FF001084FE74FF03B
S31500000570000853E700220E4800F096FCA1E740244D
S315000005800D4AD170D47035E7EC2D0000CC2900005F
S31500000590242A000038010020F8000020A8010020CD
S315000005A0AC000020AD0000203829000054290000CE
S315000005B0B000002080290000000D084070290000CE
S315000005C008B5FFF7EDFE002008BD00BF4FF0000C98
S315000005D010B541600B68044683604A68C260CA6809
S315000005E080F810C08261D3E901121868126890473A
S315000005F008B9014B236010BD32443E430022014638
S3150000060010B4836802759C6818681431E3685DF855
S31500000610044B184710B4836804229C681868A368C2
S315000006205DF8044B184700BF0B783F2B3DD8F0B55B
S315000006300E4642F210714FF0640C44F27405B6F89F
S3150000064000E01B4B9EFA9EFE1FFA8EFE01FB0EFE7D
S31500000650A3FB0E71AEEB010E164C01EB5E0E4FEADC
S315000006605E3EA4FB0E7149090CFB11EE1180A2F847
S3150000067002E0F178B67801F0FC0141EA0621891022
S3150000068005FB01F1A3FB0153C91A03EB51035B0BF5
S31500000690A3F57A6384FB0314D917C1EB64140CFB2E
S315000006A0143300209480D380F0BD4FF4403070475F
S315000006B0110004001F85EB5100B502790368003A6A
S315000006C018BF0122D868597C83B000908DF80420A9
S315000006D029B101219974DA7403B05DF804FB9B69B2
S315000006E0002BF9D06846984703B05DF804FB00BFBD
S315000006F00346002230B419604D68064C5D608D6873
S3150000070010469D600D69DD61C9681A761962DC6064
S3150000071030BC704721332C320346002259681046FC
S315000007204A60DA60704700BF00F02AB800F04AB8A5
S3150000073084B00DF1040C8CE80E009CE80E0004B0A9
S3150000074000F058B843685A68824217D070B59D6861
S315000007508668AB680446327B1B69B168286898478F
S3150000076058B9626803465460A96822464C692868ED
S31500000770A446F169BDE87040604770BD002070472F
S315000007802DE9F041436804460E461746D3F8088023
S31500000790FFF7D8FFA0B9227E0546002A03461ABFF6
S315000007A03D463046002025616061D8F808403A464B
S315000007B064683146A446D8F80000BDE8F0416047B9
S315000007C0BDE8F0812DE9F041436804460F46154621
S315000007D09E68FFF7B7FF58B9C4E904000346B0683E
S315000007E02A4684683946A4463068BDE8F041604729
S315000007F0BDE8F08130B585B004AC04E90E0043686D
S3150000080004469D68FFF79EFF80B9029A9DF80D3059
S315000008100199C4E90432AA68012394682868A446A9
S315000008209DF80C2005B0BDE83040604705B030BDEE
S3150000083070B5046803796268216A023B82B0012BB5
S315000008409268009116D8002561698DF80450C1B1EF
S31500000850936810685E6822692B46B047C4E9045560
S3150000086030B10322E3698DF804200BB1684698473E
S3150000087002B070BD93681068DB68984703238DF853
S315000008800430E369002BF1D102B070BD03460020AD
S31500000890C3E90512704700BF10B4046AA37803F0D9
S315000008A07B03A3708378046A03F00303D21A0B4414
S315000008B0C0E90332A37843F08003A370837803F082
S315000008C00303022B06D0036A0A780020DA705DF86B
S315000008D0044B70470B88026A43F47E43D3810020A1
S315000008E05DF8044B704700BFF0B5846A85B00546D5
S315000008F00F4694466E46B4B194E80F0086E80F00A2
S31500000900EB6920461B78A760236084F804C0EB6A75
S31500000910E3606B6A9847AC6A1CB196E80F0084E8FE
S315000009200F0005B0F0BD3446EAE700BF03460022DB
S315000009302DE9F041012508781A7000F5800000F5D0
S315000009408C500002C3E907104869D14C58628E6981
S315000009509878C3E90A2665F30100987048789042B2
S3150000096014BF2E460226987866F30100987091F916
S315000009700BC091F80AE04FEA5C100CF01F0620301D
S3150000098005FA06F644F82060BFF34F8FBFF36F8F6A
S31500000990C0480CF1C00650F8267062F3104740F8C4
S315000009A0267050F82660BC4E4FEA0E1E04EB0C076C
S315000009B05FFA8EFE87F800E346F82C3091F905C001
S315000009C091F804E04FEA5C170CF01F08203705FA8F
S315000009D008F844F82780BFF34F8FBFF36F8F0CF1F1
S315000009E0C00750F8278062F3104840F8278050F877
S315000009F027704FEA0E1E04EB0C075FFA8EFE87F88F
S31500000A0000E346F82C3091F907C091F806E04FEA6A
S31500000A105C170CF01F08203705FA08F844F8278001
S31500000A20BFF34F8FBFF36F8F0CF1C00750F82780CD
S31500000A3062F3104840F8278050F827704FEA0E1EE0
S31500000A4004EB0C075FFA8EFE87F800E346F82C30BD
S31500000A5091F909C091F808E04FEA5C170CF01F08FD
S31500000A60203705FA08F844F82780BFF34F8FBFF305
S31500000A706F8F0CF1C00750F8278062F3104840F8DA
S31500000A80278050F827004FEA0E10C0B2644484F85D
S31500000A90000346F82C30EFF3108685F310884FF0EC
S31500000AA000450C787D48E540446824EA0504446026
S31500000AB0406886F3108840F2F9301C6AA2701C6AFE
S31500000AC022711C6A62721C6AA2721C6AE2721C6A39
S31500000AD062830A7820FA02F2D00702D540201A6A09
S31500000AE0D074062440F2F932186A04770878C240B6
S31500000AF0D20703D54FF478401A6A9082CA784878AC
S31500000B008C78D200032842EA041200F0DA8000282A
S31500000B100CBFE220F2201C6AD2B222701A6A9071CF
S31500000B20C869027B082A00F0C8801C6A520002F0DD
S31500000B3002026273002542788478D201640104F0CF
S31500000B402004D2B222431C6A25720478023C012C8E
S31500000B501C6A40F2A780D2B2E27140681A6A8478B1
S31500000B6054704578147865F301041470C47894744D
S31500000B70D479007804F0A30400F05C002043D0711F
S31500000B800020C3E90300C3E90500DC69414A94F982
S31500000B900540CD6904F1C00152F8216095F800C006
S31500000BA060F3104642F821600CF0030C52F8211055
S31500000BB0BFF35F8F4FF0010E6109890004F01F0437
S31500000BC001F1604101F561410EFA04F4C1F880417A
S31500000BD00C60D96991F90B4004F1C00152F821600B
S31500000BE060F3104642F8216052F82110BFF35F8F80
S31500000BF06109890004F01F0401F160410EFA04F452
S31500000C0001F56141C1F880410C60D96991F907404D
S31500000C1004F1C00152F8216060F3104642F82160E9
S31500000C2052F82110BFF35F8F6109890004F01F0499
S31500000C3001F160410EFA04F401F56141C1F8804109
S31500000C400C60D96991F9091001F1C00452F82460C9
S31500000C5060F3104642F8246052F82420BFF35F8FF9
S31500000C604A09920001F01F0102F160420EFA01F1F9
S31500000C7002F56142C2F8801111601A6A4CF0700CDC
S31500000C8082F802C06989064A19815A60BDE8F08176
S31500000C9000E100E000600040AC0100200040084098
S31500000CA055494353FF2565700078022808BF42F076
S31500000CB01002186AD2B2C27162E70A241A6A547321
S31500000CC038E7F22042F0400225E700BFEFF3038346
S31500000CD0103B1F4A5BB203F1C00152F8210020F419
S31500000CE0803042F8210052F821201A4A52F8230097
S31500000CF0C3691B6983B1036903B17047026A0021A6
S31500000D00937803F07F0343F004039370436AC16052
S31500000D10C3B18022FFF7E8BD0369026A002BEED05B
S31500000D208378C16803F00303022B0CD00B78D370D1
S31500000D308278D0E9031302F003029B1A1144C0E93A
S31500000D400313D9E770470B8843F47E43D381EFE75B
S31500000D5000600040AC01002010B582B0EFF30383C1
S31500000D60103B1F4A5BB203F1C00152F8210020F488
S31500000D70803042F8210052F821201A4A52F82340C6
S31500000D80A27802F00303022B236A0CBF198A597951
S31500000D90A3690CBFC1F30801C9B2019143B9636AE3
S31500000DA0B3B10422204602B0BDE81040FFF79CBD57
S31500000DB002F0030201A9606901F078F8D4E905217F
S31500000DC0A37803F003031A44C91AC4E9052109B13B
S31500000DD002B010BD636A002BFAD00122E2E700BF21
S31500000DE000600040AC01002010B5EFF303830E4A0B
S31500000DF0103B5CB252F82400026A937803F07B033E
S31500000E009370436A1BB102220021FFF76DFD074A6A
S31500000E1004F1C00352F8231021F4803142F8231064
S31500000E2052F8233010BD00BFAC0100200060004026
S31500000E3010B5EFF303831A4A103B5CB252F8240054
S31500000E40837803F00303022B036A0CBF198A5979CE
S31500000E5093F804C00CBFC1F30801C9B21CF0100F0F
S31500000E600CF0380206D093F81CC01CF0010F08BF26
S31500000E7042F0400293F804C00CF0C70C83F804C09B
S31500000E80436A0BB1FFF730FD064A04F1C00352F87E
S31500000E90231021F4803142F8231052F8233010BD7C
S31500000EA0AC010020006000400120CBB2984080B227
S31500000EB002B900040B0A5B0103F1804303F500232A
S31500000EC098600020704700BF2DE9F84F0388DBB11A
S31500000ED080464FF000094FF0010BDFF884A0002494
S31500000EE01E4D4FEAC907D8F8043035F8022BD91938
S31500000EF0898891420AD00134032CF4D1B8F8003025
S31500000F0009F101094B45EAD8BDE8F88FDB590BFA20
S31500000F1004F603F0B853B3F1807FF6B29AF8BB3407
S31500000F200ED03342E7D0012000F0EEFE9AF8BB3433
S31500000F30012023EA06038AF8BB3400F0B5FEDAE79F
S31500000F403342D8D1012000F0DFFE9AF8BB340120ED
S31500000F5033438AF8BB3400F0A7FECCE7BC2D000073
S31500000F6000E00140F8B50646FFF7AEFFEFF310824A
S31500000F70012383F31088234F3B681BB92249CB70AA
S31500000F804023CB703B6801333B6082F31088338883
S31500000F9023B300211D4D08E01B01134445F82340EF
S31500000FA0328801318BB29A4218D9736853F83140AE
S31500000FB003EBC1029288E0034FEA1223D2B2EBD5CB
S31500000FC002EB031055F820E024F4803C2EF4803E1A
S31500000FD045F820E01B0145F820C0DEE7EFF310825C
S31500000FE0012383F310883B6813B13B68013B3B60E8
S31500000FF03B681BB980200449CB70C87082F3108807
S31500001000F8BD00BFA8010020000D084000080840F8
S3150000101008B5034B03600846FFF7A4FF002008BD90
S3150000102054524F500346002059601A72704700BF51
S3150000103084460020CCE90E32CCF83410704700BF4D
S315000010400346044ADB6800209B1AB3FA83F35B0964
S315000010500B7070474349495230B5836B83B00446E1
S315000010600A466D46A3B193E8030085E80300E16BE9
S315000010701A7119601846636B9847A36B1BB195E804
S31500001080030083E80300002384F82B3003B030BD4F
S315000010902B46ECE730B5424B83B01B6A01690193DE
S315000010A0019B03F00F230193019A019D0B7C90F89D
S315000010B02C4094B9C2F30322DBB2A2EB1562934033
S315000010C09B0804D1082003B030BD013BFAD04A7812
S315000010D0D209FAD1B323CB710169002390F82620F7
S315000010E0846980F82720026880F82B30C46180F874
S315000010F02D3080F8283080F82E30036280F82F30AB
S3150000110080F83030546A227894F801E0012A14BF3E
S315000011104FF0040C4FF0050C6279120142EA4E02C0
S3150000112094F806E042EACE124CEA0202D2B2CA7043
S3150000113001690A7942F010020A7101690A7963F3BA
S31500001140C3020A7101690A7963F304120A7102691A
S31500001150E179137961F3C71313710269537943F087
S3150000116001035371036893F90F30002B07DB01224B
S3150000117003F01F040B495B09A24041F82320BF225C
S315000011800369DA7190F82C302BB1002380F82C30EB
S31500001190002003B030BD022203695A70F8E700BF91
S315000011A000E0014000E100E090F808C0C0E9051247
S315000011B0BCF1010F80F82A3008D10022436880F87C
S315000011C026C05B0080F8243080F82520002380F8B4
S315000011D02930FFF75FBF00BF90F808C0C0E90512CD
S315000011E0BCF1010F80F82A300AD10022436880F84A
S315000011F026C05B0043F0010380F8243080F82520E8
S31500001200012380F82930FFF745BF00BF2DE9F043E1
S315000012104FF01F085F27DF260569DFF8B49185F8D0
S31500001220008005694FF0000C2F7005694FF0B30E72
S315000012302E700568634A6E6A05693679624C46F017
S31500001240E0062E740568614B6E6A0569F67846F00D
S31500001250E0066E7405686E6A0569B678360106F0B2
S31500001260700646F00806AE7005686E6A056937783E
S31500001270012F777814BF0426052646EA4706F6B2FC
S31500001280EE7005686E6805694E4514BF7726F72629
S315000012906E71056985F806C0056985F807E04E7B1D
S315000012A091F9115036015719F6B287F8006344F8E0
S315000012B0250005F1C00653F826706CF3104743F875
S315000012C0267053F82660BFF35F8F4FF0010E6E094C
S315000012D0B60005EA080506F1604606F561460EFA0F
S315000012E005F5C6F8805135604E7B91F90F503601F1
S315000012F05719F6B287F8006344F8250005F1C006D1
S3150000130053F826706CF3104743F8267053F826609E
S31500001310BFF35F8F6E09B60005EA080506F1604661
S315000013200EFA05F506F56146C6F8805135604E7B26
S3150000133091F9105036015719F6B287F8006344F850
S31500001340250005F1C00653F826706CF3104743F8E4
S31500001350267053F82660BFF35F8F6E09B60005EA64
S31500001360080506F160460EFA05F506F56146C6F86B
S31500001370805135604D7B91F90E102D010A44EDB276
S3150000138082F8005344F8210001F1C00253F82240CC
S315000013906CF3104443F8224053F82230BFF35F8FBA
S315000013A04B099B0001EA080103F160430EFA01F1C3
S315000013B003F56143C3F8801119609F2203691A700F
S315000013C0BDE8F08300E100E0AC01002000600040D1
S315000013D040420F0070B500250A78016002F58002D0
S315000013E002F51F62120202618A6842600A7B02727B
S315000013F0CA6942630A6AC0E90E52EFF3108C0122F1
S3150000140082F310880B78C3F109039A400C4B5E688F
S3150000141026EA02025A605B688CF31088FFF7F6FE34
S31500001420C0E90755074B80F82950456180F82A50D6
S31500001430856180F82B50C36080F82C50284670BD1B
S31500001440004008404349495238B500250369DD711B
S315000014500168FFF7DBFEB322836990F8261003626A
S31500001460036980F82C50C56180F8281080F82A504E
S31500001470DA71284638BD00BF38B500250446036931
S31500001480DD710168FFF7C2FEB320012394F8262020
S3150000149084F82C5084F82820A269E561226222692A
S315000014A084F82A50D07122692849D5712268E560EE
S315000014B092F91120500902F01F0203FA02F22030BD
S315000014C041F82020BFF34F8FBFF36F8F226892F948
S315000014D00E20500902F01F0203FA02F2203041F8F2
S315000014E02020BFF34F8FBFF36F8F226892F9102031
S315000014F0500902F01F0203FA02F2203041F82020C0
S31500001500BFF34F8FBFF36F8F226892F90F205009F8
S3150000151002F01F0203FA02F2203041F82020BFF346
S315000015204F8FBFF36F8FEFF3108083F3108821681E
S31500001530074A0978C1F109018B4051680B43536092
S31500001540536880F31088284638BD00BF00E100E0EC
S315000015500040084010B582B0EFF30383103B5F4AAA
S315000015605BB2C03352F8231021F4803142F82310C5
S3150000157052F82330EFF30383594A103B5BB252F81B
S31500001580234094F82D305BBBA369022B22D9E36973
S31500001590012B0ED12269137943F0100313712269CE
S315000015A0137943F0080313712269137923F01003AA
S315000015B0137123685B6ADB79002B3ED10122236914
S315000015C0DB7CDBB28DF807309DF8073084F82D20E0
S315000015D002B010BD2269137943F040031371D6E7B8
S315000015E0E369002BF4D02268526AD279FAB9032B48
S315000015F017D0022B26D0012B34D02269236AD17C46
S315000016006269D154D4E907320132013BC4E9073299
S31500001610002BDDD121690A7963F386120A7102B0C3
S3150000162010BD2269137943F040031371E5E70521E4
S315000016302046FFF711FDE369D9E705212046FFF7AC
S315000016400BFDBBE72269137943F01003137122697E
S31500001650137943F0080313712269137923F01003F9
S315000016601371CAE794F82A2072B322681D4892F9CA
S315000016700F20510902F01F0203FA02F2203140F84E
S315000016802120BFF34F8FBFF36F8F04202169CA79E2
S3150000169042F08002CA7121690A7942F010020A7189
S315000016A021690A7922F008020A7121690A7922F071
S315000016B010020A712269507021694A7922F00102EA
S315000016C04A7184F82C3098E708212269537A03F08E
S315000016D0F7035372236959708FE700BF006000401B
S315000016E0AC01002000E100E010B5EFF30383103BEE
S315000016F0424A5BB2C03352F8231021F4803142F8DB
S31500001700231052F82330EFF303833D4A103B5BB2BC
S3150000171052F8234094F82730002B3FD194F8293013
S31500001720002B3AD123685B6ADB792BB194F82B3016
S3150000173013B9236A002B5BD1E3692169002B40D1E1
S31500001740CB79C02223F08003CB71216901E0013AF5
S3150000175002D0CB79DB09FAD12368284A93F91030F5
S31500001760C03352F8231021F4803142F8231052F886
S315000017702330236893F91030002B09DB01215A0925
S31500001780204803F01F03603201FA03F340F82230C9
S315000017902269D37943F04003D37110BD94F8263003
S315000017A0032B1CD094F8242023699A7494F82820DB
S315000017B094F827300132013B84F8282084F827303A
S315000017C010BD236A6269D35C8B74D4E90732013297
S315000017D0013BC4E90732002BDFD12169B0E794F859
S315000017E02830022BDED194F83030002BDAD110BD30
S315000017F005212046FFF730FC9EE700BF0060004051
S31500001800AC01002000E100E038B5EFF30383334A72
S31500001810103B5BB252F8234023685B6ADB79002BEE
S3150000182048D194F829301BB194F82730012B4FD0BA
S31500001830E369DBB12169C023CA7922F04002CA718B
S31500001840216901E0013B02D0CA795206FAD4EFF3CE
S315000018500383103B224A5BB2C03352F8231021F4B3
S31500001860803142F8231052F8233038BD94F82A20EC
S315000018702AB3012022681B4D92F90F20510902F06C
S315000018801F02203100FA02F245F82120BFF34F8FE4
S31500001890BFF36F8F2169CA7942F08002CA710421B1
S315000018A02269517021694A7963F300024A7184F80A
S315000018B02C00BFE705212046FFF7CEFBB1E7082144
S315000018C02269537A03F0F703537223695970B1E71B
S315000018D094F83030002BADD0AAE700BFAC01002051
S315000018E00060004000E100E038B5EFF303834C4AA6
S315000018F0103B5BB252F823000269537A517ADC0638
S3150000190001F0E00151725FFA83FC03F003022BD56C
S3150000191003695978490647D40024012580F82B50DD
S31500001920DC710168FFF772FCB32290F8263080F86C
S315000019302C4080F82830C46180F82A400369846905
S3150000194029460462DA71FFF787FBEFF30383103B46
S31500001950344A5BB2C03352F8231021F4803142F886
S31500001960231052F8233038BD002A56D11CF0080F38
S315000019700ED090F82B30002B3ED1B32290F82910D0
S315000019800369C1F10301C9B2DA71FFF765FBDCE750
S3150000199090F82C200CF004032AB3002BD5D090F835
S315000019A02B30002B37D1E8E7002AB5D15A78C2F39D
S315000019B080115206DAD5082280F82B105A70036877
S315000019C001695A6A94791378527943EAC41343EA4F
S315000019D0021343F00203DBB2CB700269537943F082
S315000019E001035371B1E7002BAFD003685B6ADB7963
S315000019F0002BAAD00421C8E70023B32190F8265073
S31500001A008469026980F82C3080F828500462C3612A
S31500001A1080F82A30D1710121B7E703697CE700BF5E
S31500001A20AC01002000600040064B074993F82600F1
S31500001A301A6A51F82030C2F302620449D3400B609F
S31500001A40704700BF00E0014070000020380300200E
S31500001A504AF2035001232F492F4A2DE9F043A1F8FA
S31500001A60FE03A2F80431B2F804319BB2002BFAD17E
S31500001A7001244FF4004529482949C0E9033385600C
S31500001A80A2F80041274A8C600C600260264A01F5E4
S31500001A90B83191F8265042600A6A81F8804481F88C
S31500001AA03630224B436191F83C30DA07FBD542F2DF
S31500001AB011740023174A0C8581F82A3092F83C30BD
S31500001AC09B06FBD505244FF003090123F1254FF0B2
S31500001AD0F00E4FF4254CDFF84080154F88F81C9126
S31500001AE0176282F8264092F82640124950F82400E0
S31500001AF0146A114EC4F30264E04030600D730B7239
S31500001B0081F80CE082F8303082F85230A2F8FEC339
S31500001B10BDE8F08300E0014000C0014070000020F5
S31500001B2000700040002D310100127A0000C2EB0B5C
S31500001B3021120120002000403803002010B50024A7
S31500001B40064B012083F8284000F0DEF8044B012004
S31500001B5083F8BB44BDE8104000F0A6B8003008404A
S31500001B6000E00140A0F101000028FBD1704700BF52
S31500001B704FF47A7310B400FB01F1114C114A24683A
S31500001B80B2FBF4F2A1FB03043CB9B0FBF2F080080F
S31500001B9060B15DF8044BFFF7E5BF9200B1FBF2F1CF
S31500001BA0A1FB03132BB908460028F2D15DF8044BBC
S31500001BB070474FF0FF3C5DF8044B6046FFF7D2BF1D
S31500001BC03803002000CA9A3B70B500240B4B0C4E1C
S31500001BD0B3F82021B3F84051ADB2154025FA04F30D
S31500001BE0DB0704D556F82430E0B203B19847013438
S31500001BF0102CF3D1014BA3F8305170BD00600040AA
S31500001C006801002030B5032085B000F07DF86FF044
S31500001C10FF054FF0FF31204C002322464FF0010E06
S31500001C201E488564CDE90111039104F1C00532F81F
S31500001C30020F590960B104A800EB810151F80C0CA0
S31500001C4003F01F0C0EFA0CFC20EA0C0041F80C0CF9
S31500001C50954203F10103EAD10199114B0F4A032082
S31500001C601167C3F8801202995167C3F88412039969
S31500001C709167C3F8881200F017F80023094834F872
S31500001C80022F03F1C00101330AB140F82120A54219
S31500001C90F5D105B030BD00BFE22C00000080004049
S31500001CA000E100E000600040EFF31081012383F3C0
S31500001CB01088124B33F8102092B22AB133F8102054
S31500001CC0013A92B223F8102033F810309BB293B940
S31500001CD010B40B4A0B4CB2F8FE3334F810009BB22A
S31500001CE043F4254323EA0003A2F8FE3381F3108868
S31500001CF05DF8044B704781F3108870472C03002071
S31500001D0000E00140E42D000030B4EFF31081012320
S31500001D1083F310880E4A32F810309BB26BB90D4C23
S31500001D200D4DB4F8FE3335F810C09BB243EA0C03F0
S31500001D3043F425439BB2A4F8FE3332F81030013346
S31500001D409BB222F8103081F3108830BC704700BF78
S31500001D502C03002000E00140E42D000008B50C4AE9
S31500001D600346106840B103330A4923F003030344D2
S31500001D708B4205D8136008BD074908461160F2E793
S31500001D8000F086F80C2203461A604FF0FF3008BDBB
S31500001D9034030020880400208804002000BE704719
S31500001DA008B500F003F8FEF70BFCFEE74FF47002EF
S31500001DB070B52B4B2B4CC3F8882000209C60FEF797
S31500001DC047FAFFF745FE0120FEF742FA2368A3F51E
S31500001DD0806383F30A882448244A0021121A00F0FB
S31500001DE05DF82348234A2449121A00F05FF8234D70
S31500001DF0234B5B1B002B07DD00249E1055F8043B8C
S31500001E0001349847A642F9DCFFF70EFEFFF796FE6F
S31500001E100320FFF779FF00234FF6FF70194903F1FE
S31500001E20080201330C2B21F81200F8D100240320FC
S31500001E30FFF73AFF0320FFF767FF134B03205C60B1
S31500001E409C60DC601C61FFF72FFF0220FEF700FAA2
S31500001E50FFF7D8FE2046BDE8704000F017B800BF77
S31500001E6000ED00E000000000900000208404002047
S31500001E700000002070000020602F00006800002095
S31500001E806C000020000D084000000E40704700BFA7
S31500001E90014B1868704700BF180000200244034633
S31500001EA0934200D1704703F8011BF9E70A44431E29
S31500001EB0914200D1704710B511F8014B914203F8D9
S31500001EC0014FF9D110BD034613F8012B002AFBD1AF
S31500001ED0181A01387047FFFF0EB410B59DB06FF0A9
S31500001EE0004100241FAB0290069007910491094817
S31500001EF0094953F8042B059102A9006801931B9424
S31500001F0000F0F0F8029B1C701DB0BDE8104003B055
S31500001F10704700BF180000200802FFFF0A220021B8
S31500001F2000F07AB8242B2DE9F0478646904601D872
S31500001F30012B06D1FFF7ACFF162303600020BDE896
S31500001F40F0870D4633482A4615F8014B065D16F014
S31500001F500806F8D12D2C10D12C780126951C33F0CB
S31500001F60100215D1302C0DD12A7802F0DF02582A42
S31500001F7008D16C78023510230AE02B2C04BF2C788C
S31500001F80951CECE7002BF6D1302C14BF0A2308234E
S31500001F9006F1004C00220CF1FF3C1046BCFBF3F9A5
S31500001FA003FB19CAA4F13007092F0FD83C46A342F8
S31500001FB01BDD571C07D0814514D301D1A24511DB87
S31500001FC000FB0340012215F8014BEBE7A4F14107A2
S31500001FD0192F01D8373CEAE7A4F16107192F04D875
S31500001FE0573CE4E74FF0FF32EDE7531C08D12223BC
S31500001FF06046CEF80030B8F1000FA0D0691E06E0AA
S3150000200006B14042B8F1000F99D0002AF6D1C8F8BF
S31500002010001094E7342E000013460A460146024893
S315000020200068FFF77FBF00BF180000202DE9F047CA
S315000020301F468E6882460C46BE4290460B682DD8D7
S31500002040B1F90C2012F4906F26D06569096905EB89
S315000020504505A3EB01097B1C05EBD5754B446D10BB
S315000020609D4238BF1D46530527D5294600F004FB7F
S31500002070064660B34A462169FFF718FFA38923F491
S31500002080906343F08003A38126614E446561A5EB0E
S31500002090090526603E46A560BE4200D93E46324648
S315000020A04146206800F01AF9A36800209B1BA36034
S315000020B0236833442360BDE8F0872A4600F086FB98
S315000020C006460028E0D12169504600F0ADFB0C23FE
S315000020D04FF0FF30CAF80030A38943F04003A381D4
S315000020E0E9E7FFFF2DE9F04F98468B899DB007463B
S315000020F01B060D46144610D50B6973B9402100F036
S31500002100BBFA2860286130B90C233B604FF0FF30E2
S315000021101DB0BDE8F08F40236B610023CDF80C8025
S315000021204FF00109DFF8A081099320238DF82930AB
S3150000213030238DF82A3023469A4613F8012B0AB12C
S31500002140252AF9D1BAEB040B0BD05B462246294669
S315000021503846FFF76BFF013000F0A780099A5A4412
S3150000216009929AF80030002B00F09F8000234FF070
S31500002170FF320AF1010A049307938DF853301A933C
S31500002180CDE90523544605224F4814F8011B00F0FB
S31500002190F3FA049AD8B9D00644BF20238DF85330F9
S315000021A0110744BF2B238DF853309AF800302A2BA1
S315000021B015D0079A544600204FF00A0C214611F814
S315000021C0013B303B092B4BD9B0B1079214E0A0EB91
S315000021D00803A24609FA03F313430493D2E7039BC9
S315000021E0191D1B68002B0391BBBF5B4242F0020224
S315000021F007930793B8BF049223782E2B0AD16378EE
S315000022002A2B32D1039B02341A1D1B6843EAE3735F
S3150000221003920593DFF8C0A003222178504600F010
S31500002220ABFA38B1A0EB0A004022049B013482408D
S315000022301343049314F8011B062224488DF8281032
S3150000224000F09AFA002836D0214B1BBB039B0733BC
S3150000225023F0070308330393099B334409936AE782
S315000022600CFB02320C460120A8E7002301344FF094
S315000022700A0C19460593204610F8012B303A092A14
S3150000228003D9002BC6D00591C4E70CFB01210446F7
S315000022900123F0E703AB2A4604A9384600930D4B09
S315000022A0AFF30080421C0646D6D1AB895B063FF5EC
S315000022B02DAF09982CE703AB2A4604A938460093AC
S315000022C0044B00F099F8EDE7002E00000A2E0000FE
S315000022D0000000002D200000062E0000884210B5E8
S315000022E001EB020402D98442234607D8431EA142C9
S315000022F008D011F8012B03F8012FF8E70244014634
S315000023008A4200D110BD13F8014D02F8014DF7E7DE
S31500002310704770472DE9F047164698468A68074683
S315000023200B690C46DDF820909342B8BF1346336024
S3150000233091F843200AB1013333602368990642BFFE
S31500002340336802333360256815F0060506D104F1BB
S31500002350190AE36832689B1AAB422BDC94F84330C7
S315000023602268003B18BF0123920630D404F14302D1
S3150000237041463846C847013023D023681A3454F8FA
S315000023800A2C03F00603042B0ABF54F80E5C002542
S3150000239033684FF0000608BFED1A54F8123C08BF28
S315000023A025EAE5759342C4BF9B1AED18B5421AD1CA
S315000023B0002008E00123524641463846C84701300E
S315000023C003D14FF0FF30BDE8F0870135C1E7E118D2
S315000023D05A1C30200233224481F8430094F84510F9
S315000023E082F84310C2E70123224641463846C847D1
S315000023F00130E6D00136D9E72DE9FF470F7E914639
S3150000240080460C46782F9A460C9E01F1430207D867
S31500002410622F0AD8002F00F0D180582F00F0B88024
S3150000242004F1420684F842703AE0A7F16303152BE3
S31500002430F6D801A151F823F091240000A52400004C
S315000024402124000021240000212400002124000072
S31500002450A5240000212400002124000021240000DE
S3150000246021240000A3250000CF2400005D250000E4
S315000024702124000021240000C5250000212400009D
S31500002480CF2400002124000021240000652500003F
S3150000249033681A1D1B68326004F1420684F8423024
S315000024A001239CE033682068191D3160060601D5BA
S315000024B01D6803E04506FBD5B3F90050002D03DA8D
S315000024C02D236D4284F8433058480A2311E02168D1
S315000024D03368080653F8045B02D4490648BFADB218
S315000024E06F2F3360514814BF0A230823002184F854
S315000024F043106668002EA66005DB21682E4321F096
S31500002500040121604BD01646B5FBF3F103FB1157CE
S31500002510C75D06F8017D2F460D46BB42F4D9082B50
S315000025200BD12368DF0708D5236961689942DEBFAE
S31500002530302306F8013C06F1FF36921B22614B461A
S3150000254003AA21464046CDF800A0FFF7E3FE01307E
S315000025504AD14FF0FF3004B0BDE8F087236843F05E
S315000025602003236078273248236884F845701F06C5
S31500002570316851F8045B02D45F0648BFADB23160E2
S31500002580D90744BF43F0200323601DB11023ADE7F4
S315000025902648E9E7236823F020032360F6E716467A
S315000025A0BDE733682568181D616930602E061B6813
S315000025B001D5196002E06806FBD51980002316468E
S315000025C02361BCE7336800211A1D32601E68626809
S315000025D0304600F0D1F808B1801B60606368236163
S315000025E0002384F84330AAE7236932464946404629
S315000025F0D0470130ADD023689B0713D4E068039B16
S315000026009842B8BF1846A6E70123324649464046D7
S31500002610D04701309DD00135E36803995B1AAB4280
S31500002620F2DCEBE7002504F11906F5E7112E0000B0
S31500002630222E000070B50F4E0C460546316811B9C2
S3150000264000F0B4F830602146284600F0AFF8431C8D
S3150000265003D14FF0FF34204670BDC41C24F00304A0
S31500002660A042F8D0211A284600F0A0F80130F2D195
S31500002670EFE700BF780400202DE9F843CD1C06469D
S3150000268025F0030508350C2D38BF0C25002D01DB80
S31500002690A94204D90C2333600020BDE8F883DFF893
S315000026A0D48000F077F8D8F800301C4644BB2946A1
S315000026B03046FFF7BFFF431C044658D1D8F8004008
S315000026C02746002F43D1002C4BD02368394630468D
S315000026D004EB030900F06AF8814542D121683046CF
S315000026E06D1A2946FFF7A6FF01303AD023682B441E
S315000026F02360D8F800305A6862BBC8F800700FE053
S315000027002268521B20D40B2A17D96119A3422560CF
S3150000271018BF5960636808BFC8F8001062514B6063
S31500002720304600F03DF804F10B00231D20F00700B1
S31500002730C21A1CBF1B1AA350AFE76268A3420CBFA4
S31500002740C8F800205A60EBE723466468AEE73C46CB
S315000027507F68B6E71A465B68A342FBD10023536045
S31500002760DEE70C233046336000F01AF894E7056084
S31500002770D6E700BF7C040020C9B20346024410B568
S315000027809342184601D1002003E0047801338C42BD
S31500002790F6D110BD0148FFF7BBBD00BF7404002091
S315000027A00148FFF7B6BD00BF7404002038B500230A
S315000027B0054D044608462B60FFF7D0FA431C02D1AC
S315000027C02B6803B1236038BD800400202DE9F04159
S315000027D0074614460D4621B91146BDE8F041FFF7FC
S315000027E04BBF2AB9254600F01FF82846BDE8F08100
S315000027F000F064F88442064602D8B4EB500FF4D8D1
S3150000280021463846FFF738FF804608B94546ECE7CB
S31500002810B4422246294628BF3246FFF747FB2946DF
S31500002820384600F001F8F1E738B50546002941D0F1
S3150000283051F8043C0C1F002BB8BFE418FFF7AAFFA1
S315000028401D4A136833B9636014602846BDE83840F2
S31500002850FFF7A6BFA34208D9206821188B4201BF03
S3150000286019685B6809182160EDE71A465B680BB1C9
S31500002870A342FAD911685018A0420BD1206801442E
S31500002880501811608342E0D118685B6808445360B1
S315000028901060DAE702D90C232B60D6E720682118EE
S315000028A08B4202BF19685B680918636008BF216024
S315000028B05460CAE738BD00BF7C04002051F8043CD0
S315000028C0181F002BBCBF0B58C01870474275696CA7
S315000028D07420776974682052656E65736173204150
S315000028E06476616E63656420466C657869626C65C2
S315000028F020536F667477617265205061636B616700
S31500002900652076657273696F6E20352E342E300021
S31500002910352E342E3000000000000405F8B500BF47
S31500002920F8BC08BC9E467047F8B500BFF8BC08BCAA
S315000029309E4670470D0A000048756D696469747992
S315000029402076616C75653A2025642E2564200A0D73
S315000029500000000054656D706572617475726520C3
S3150000296076616C75653A2025642E2564200A0D0073
S315000029704E6861702076616F20736F3A2000000008
S315000029804461206E68616E3A202564200A0D00FFBE
S31500002990B80000209C290000C42D000000000000A3
S315000029A0A086010000000000010C000102030000E7
S315000029B000000000000000003108000000000000D8
S315000029C0C42900000101031C1C000000DC290000D2
S315000029D000000000000000007D020000140100203D
S315000029E0E8290000A42D0000FFFFFFFF00000020E3
S315000029F0FC290000F8000020B906000000000000D5
S31500002A00000000004400000001000000000000007B
S31500002A100000000000000000310800000000000077
S31500002A2000000000050200000C040C050C060C0753
S31500002A300000000000000000690200000000000025
S31500002A40442A000000010000140000200F00FFFFD0
S31500002A5000000000FFFF000050000000642A000094
S31500002A600000000000800000000000000080000060
S31500002A70010000000080000002000000008000004D
S31500002A800300000010400000040000001040000099
S31500002A900500000010400000060000001040000085
S31500002AA008000000008000000E000000008000000A
S31500002AB00F000000000000000401000000000000FC
S31500002AC005010000000C01000801000000000000E4
S31500002AD00B010000000C01120C010000000C011299
S31500002AE00D010000000C01120E01000000000000A4
S31500002AF00F010000000001050202000000000105B0
S31500002B0003020000000001050402000000000105A8
S31500002B1005020000000000000602000000000000A0
S31500002B20070200000000000008020000450C00003B
S31500002B300A020000000C01170B020000000C01172E
S31500002B400E020000000C010000030000450C00000E
S31500002B5003030000450C000006030000450C0000BE
S31500002B6007030000450C00000B030000400C0107A2
S31500002B7000040000400C01070104000010400000A2
S31500002B800204000010400000030400001040000092
S31500002B9004040000000C011705040000000C0117D6
S31500002BA006040000000C011307040000450C000099
S31500002BB009040000000C01060A040000000C0106CE
S31500002BC00B040000000C01060C040000000C0106BA
S31500002BD00D040000000000000E04000000000000CC
S31500002BE00F040000000C010500050000000C0105A3
S31500002BF001050000000C01050205000000000000B0
S31500002C0003050000000000000505000000000000AC
S31500002C1006050000000C010508050000400C010730
S31500002C200B050000400C01070C050000040C000019
S31500002C3001060000040C000002060000040C00005F
S31500002C4003060000040C000005060000000000005A
S31500002C5008060000040C000009060000040C000031
S31500002C600A060000000000000B060000400C0105EB
S31500002C700D060000400C01050E060000000C0113B5
S31500002C800F060000000C011700070000000C0117DA
S31500002C9001070000000C011702070000000C0117D5
S31500002CA003070000000C011704070000000C0117C1
S31500002CB005070000000C010506070000000C0105D1
S31500002CC007070000000000000807000000400000A1
S31500002CD0030800000040000004080000000C011377
S31500002CE0080A000073007400750076009E019F01BB
S31500002CF0A001A1010000000000000000000000008B
S31500002D0000000000000000000000000000000000BD
S31500002D1000000000000000000000000000000000AD
S31500002D20000000000000000000000000000000009D
S31500002D30000000000000000000000000000000008D
S31500002D40000000000000000000000000000000007D
S31500002D50000000000000000000000000000000006D
S31500002D60000000000000000000000000000000005D
S31500002D70000000000000000000000000000000004D
S31500002D80000000000000000000000000000000003D
S31500002D90000000000000000000000000000000002D
S31500002DA000000000F10600001907000029070000D6
S31500002DB02D07000031070000000000000204030494
S31500002DC00404FFFFD5130000D9110000A91100006B
S31500002DD049140000251000003110000041100000C9
S31500002DE0791400000100020008001000060000002F
S31500002DF0F42D00000A06090601060206030605066A
S31500002E00232D302B2000686C4C00656667454647CD
S31500002E100030313233343536373839414243444550
S31500002E2046003031323334353637383961626364BF
S31500002E306566000020202020202020202028282829
S31500002E40282820202020202020202020202020206C
S31500002E5020202020881010101010101010101010B4
S31500002E6010101010040404040404040404041010D4
S31500002E701010101010414141414141010101010171
S31500002E80010101010101010101010101010101101D
S31500002E901010101010424242424242020202020246
S31500002EA002020202020202020202020202020210EE
S31500002EB010101020000000000000000000000000BC
S31500002EC000000000000000000000000000000000FC
S31500002ED000000000000000000000000000000000EC
S31500002EE000000000000000000000000000000000DC
S31500002EF000000000000000000000000000000000CC
S31500002F0000000000000000000000000000000000BB
S31500002F1000000000000000000000000000000000AB
S31500002F20000000000000000000000000000000009B
S31500002F30000000001000000000000000017A5200AE
S31500002F40027C0E011B0C0D00100000001800000092
S31500002F5076EFFFFF100000000000000000000000F8
S31500002F60FFFFFFFF000000009029000000000000A6
S31500002F7000000000400035001C000020000000009A
S31500002F803C030020A40300200C04002000000000E5
S31500002F90000000000000000000000000000000002B
S31500002FA0000000000000000000000000000000001B
S31500002FB0000000000000000000000000000000000B
S31500002FC000000000000000002D02000005020000C5
S3150100A100FFFFFFFFFFFFFFFFFFFFFFFFFFFFFFFF58
S3090100A110FFFFFFFF48
S3090100A134FFFFFFFF24
S3150100A200FFFDFFFFFFFFFFFFFFFFFFFFFFFFFFFF59
S3150100A210FFFFFFFFFFFFFFFFFFFFFFFFFFFFFFFF47
S3150100A220FFFFFFFFFFFFFFFFFFFFFFFFFFFFFFFF37
S3150100A230FFFFFFFFFFFFFFFFFFFFFFFFFFFFFFFF27
S3150100A240FFFFFFFFFFFFFFFFFFFFFFFFFFFFFFFF17
S3150100A250FFFFFFFFFFFFFFFFFFFFFFFFFFFFFFFF07
S3150100A260FFFFFFFFFFFFFFFFFFFFFFFFFFFFFFFFF7
S3150100A270FFFFFFFFFFFFFFFFFFFFFFFFFFFFFFFFE7
S3150100A280F8F8FFFFFFFFFFFFFFFFFFFFFFFFFFFFE5
S3150100A290FFFFFFFFFFFFFFFFFFFFFFFFFFFFFFFFC7
S3150100A2A0FFFFFFFFFFFFFFFFFFFFFFFFFFFFFFFFB7
S3150100A2B0FFFFFFFFFFFFFFFFFFFFFFFFFFFFFFFFA7
S3150100A2C0FFFFFFFFFFFFFFFFFFFFFFFFFFFFFFFF97
S70500001DA13C
